{
  "_format": "hh-sol-artifact-1",
  "contractName": "LyraDistributor",
  "sourceName": "contracts/token/LyraDistributor.sol",
  "abi": [
    {
      "inputs": [
        {
          "internalType": "contract IERC20",
          "name": "_token",
          "type": "address"
        }
      ],
      "stateMutability": "nonpayable",
      "type": "constructor"
    },
    {
      "anonymous": false,
      "inputs": [
        {
          "indexed": false,
          "internalType": "uint256",
          "name": "amount",
          "type": "uint256"
        },
        {
          "indexed": true,
          "internalType": "address",
          "name": "claimer",
          "type": "address"
        }
      ],
      "name": "ClaimAdded",
      "type": "event"
    },
    {
      "anonymous": false,
      "inputs": [
        {
          "indexed": false,
          "internalType": "uint256",
          "name": "amount",
          "type": "uint256"
        },
        {
          "indexed": true,
          "internalType": "address",
          "name": "claimer",
          "type": "address"
        }
      ],
      "name": "ClaimRemoved",
      "type": "event"
    },
    {
      "anonymous": false,
      "inputs": [
        {
          "indexed": false,
          "internalType": "uint256",
          "name": "amount",
          "type": "uint256"
        },
        {
          "indexed": true,
          "internalType": "address",
          "name": "claimer",
          "type": "address"
        }
      ],
      "name": "Claimed",
      "type": "event"
    },
    {
      "anonymous": false,
      "inputs": [
        {
          "indexed": true,
          "internalType": "address",
          "name": "previousOwner",
          "type": "address"
        },
        {
          "indexed": true,
          "internalType": "address",
          "name": "newOwner",
          "type": "address"
        }
      ],
      "name": "OwnershipTransferred",
      "type": "event"
    },
    {
      "stateMutability": "payable",
      "type": "fallback"
    },
    {
      "inputs": [
        {
          "internalType": "address[]",
          "name": "addresses",
          "type": "address[]"
        },
        {
          "internalType": "uint256[]",
          "name": "claimAmounts",
          "type": "uint256[]"
        }
      ],
      "name": "addToClaims",
      "outputs": [],
      "stateMutability": "nonpayable",
      "type": "function"
    },
    {
      "inputs": [],
      "name": "claim",
      "outputs": [],
      "stateMutability": "nonpayable",
      "type": "function"
    },
    {
      "inputs": [],
      "name": "claimTimestamp",
      "outputs": [
        {
          "internalType": "uint256",
          "name": "",
          "type": "uint256"
        }
      ],
      "stateMutability": "view",
      "type": "function"
    },
    {
      "inputs": [
        {
          "internalType": "address",
          "name": "",
          "type": "address"
        }
      ],
      "name": "claimableBalances",
      "outputs": [
        {
          "internalType": "uint256",
          "name": "",
          "type": "uint256"
        }
      ],
      "stateMutability": "view",
      "type": "function"
    },
    {
      "inputs": [
        {
          "internalType": "address[]",
          "name": "addresses",
          "type": "address[]"
        }
      ],
      "name": "getClaimableForAddresses",
      "outputs": [
        {
          "internalType": "uint256[]",
          "name": "claimed",
          "type": "uint256[]"
        },
        {
          "internalType": "uint256[]",
          "name": "claimable",
          "type": "uint256[]"
        }
      ],
      "stateMutability": "view",
      "type": "function"
    },
    {
      "inputs": [],
      "name": "owner",
      "outputs": [
        {
          "internalType": "address",
          "name": "",
          "type": "address"
        }
      ],
      "stateMutability": "view",
      "type": "function"
    },
    {
      "inputs": [
        {
          "internalType": "address[]",
          "name": "addresses",
          "type": "address[]"
        }
      ],
      "name": "removeClaims",
      "outputs": [],
      "stateMutability": "nonpayable",
      "type": "function"
    },
    {
      "inputs": [],
      "name": "renounceOwnership",
      "outputs": [],
      "stateMutability": "nonpayable",
      "type": "function"
    },
    {
      "inputs": [
        {
          "internalType": "address payable[]",
          "name": "addresses",
          "type": "address[]"
        },
        {
          "internalType": "uint256[]",
          "name": "ethAmounts",
          "type": "uint256[]"
        }
      ],
      "name": "sendEth",
      "outputs": [],
      "stateMutability": "nonpayable",
      "type": "function"
    },
    {
      "inputs": [
        {
          "internalType": "uint256",
          "name": "newClaimTimestamp",
          "type": "uint256"
        }
      ],
      "name": "setClaimTimestamp",
      "outputs": [],
      "stateMutability": "nonpayable",
      "type": "function"
    },
    {
      "inputs": [],
      "name": "token",
      "outputs": [
        {
          "internalType": "contract IERC20",
          "name": "",
          "type": "address"
        }
      ],
      "stateMutability": "view",
      "type": "function"
    },
    {
      "inputs": [
        {
          "internalType": "address",
          "name": "",
          "type": "address"
        }
      ],
      "name": "totalClaimed",
      "outputs": [
        {
          "internalType": "uint256",
          "name": "",
          "type": "uint256"
        }
      ],
      "stateMutability": "view",
      "type": "function"
    },
    {
      "inputs": [
        {
          "internalType": "address",
          "name": "newOwner",
          "type": "address"
        }
      ],
      "name": "transferOwnership",
      "outputs": [],
      "stateMutability": "nonpayable",
      "type": "function"
    }
  ],
  "bytecode": "0x608060405234801561001057600080fd5b506040516111893803806111898339818101604052602081101561003357600080fd5b5051600061003f6100ae565b600080546001600160a01b0319166001600160a01b0383169081178255604051929350917f8be0079c531659141344cd1fd0a4f28419497f9722a3daafe3b4186f6b6457e0908290a350600480546001600160a01b0319166001600160a01b03929092169190911790556100b2565b3390565b6110c8806100c16000396000f3fe6080604052600436106100c25760003560e01c80638da5cb5b1161007f578063e5a76a6211610059578063e5a76a62146104b1578063ef5d9ae8146105f8578063f2fde38b1461062b578063fc0c546a1461065e576100c2565b80638da5cb5b146102a257806390d228f2146102d3578063a84e843314610403576100c2565b8063022e3468146100c457806325245b26146100eb5780634e71d92d1461021b57806368c8278f14610230578063715018a614610263578063894f849814610278575b005b3480156100d057600080fd5b506100d9610673565b60408051918252519081900360200190f35b3480156100f757600080fd5b506100c26004803603604081101561010e57600080fd5b810190602081018135600160201b81111561012857600080fd5b82018360208201111561013a57600080fd5b803590602001918460208302840111600160201b8311171561015b57600080fd5b9190808060200260200160405190810160405280939291908181526020018383602002808284376000920191909152509295949360208101935035915050600160201b8111156101aa57600080fd5b8201836020820111156101bc57600080fd5b803590602001918460208302840111600160201b831117156101dd57600080fd5b919080806020026020016040519081016040528093929190818152602001838360200280828437600092019190915250929550610679945050505050565b34801561022757600080fd5b506100c26107fd565b34801561023c57600080fd5b506100d96004803603602081101561025357600080fd5b50356001600160a01b031661097b565b34801561026f57600080fd5b506100c261098d565b34801561028457600080fd5b506100c26004803603602081101561029b57600080fd5b5035610a39565b3480156102ae57600080fd5b506102b7610aa0565b604080516001600160a01b039092168252519081900360200190f35b3480156102df57600080fd5b506100c2600480360360408110156102f657600080fd5b810190602081018135600160201b81111561031057600080fd5b82018360208201111561032257600080fd5b803590602001918460208302840111600160201b8311171561034357600080fd5b9190808060200260200160405190810160405280939291908181526020018383602002808284376000920191909152509295949360208101935035915050600160201b81111561039257600080fd5b8201836020820111156103a457600080fd5b803590602001918460208302840111600160201b831117156103c557600080fd5b919080806020026020016040519081016040528093929190818152602001838360200280828437600092019190915250929550610aaf945050505050565b34801561040f57600080fd5b506100c26004803603602081101561042657600080fd5b810190602081018135600160201b81111561044057600080fd5b82018360208201111561045257600080fd5b803590602001918460208302840111600160201b8311171561047357600080fd5b919080806020026020016040519081016040528093929190818152602001838360200280828437600092019190915250929550610ccd945050505050565b3480156104bd57600080fd5b5061055f600480360360208110156104d457600080fd5b810190602081018135600160201b8111156104ee57600080fd5b82018360208201111561050057600080fd5b803590602001918460208302840111600160201b8311171561052157600080fd5b919080806020026020016040519081016040528093929190818152602001838360200280828437600092019190915250929550610e17945050505050565b604051808060200180602001838103835285818151815260200191508051906020019060200280838360005b838110156105a357818101518382015260200161058b565b50505050905001838103825284818151815260200191508051906020019060200280838360005b838110156105e25781810151838201526020016105ca565b5050505090500194505050505060405180910390f35b34801561060457600080fd5b506100d96004803603602081101561061b57600080fd5b50356001600160a01b0316610f25565b34801561063757600080fd5b506100c26004803603602081101561064e57600080fd5b50356001600160a01b0316610f37565b34801561066a57600080fd5b506102b7611039565b60035481565b610681611048565b6001600160a01b0316610692610aa0565b6001600160a01b0316146106db576040805162461bcd60e51b81526020600482018190526024820152600080516020611073833981519152604482015290519081900360640190fd5b8051825114610723576040805162461bcd60e51b815260206004820152600f60248201526e0d8cadccee8d040dad2e6dac2e8c6d608b1b604482015290519081900360640190fd5b60005b82518110156107f857600083828151811061073d57fe5b60200260200101516001600160a01b031683838151811061075a57fe5b6020908102919091010151604051600081818185875af1925050503d80600081146107a1576040519150601f19603f3d011682016040523d82523d6000602084013e6107a6565b606091505b50509050806107ef576040805162461bcd60e51b815260206004820152601060248201526f2a3930b739b332b9103330b4b632b21760811b604482015290519081900360640190fd5b50600101610726565b505050565b3360009081526001602052604090205480610855576040805162461bcd60e51b81526020600482015260136024820152724e6f2062616c616e636520746f20636c61696d60681b604482015290519081900360640190fd5b600354421161089e576040805162461bcd60e51b815260206004820152601060248201526f10d85b9b9bdd0818db185a5b481e595d60821b604482015290519081900360640190fd5b33600081815260016020908152604080832083905560048054825163a9059cbb60e01b8152918201959095526024810186905290516001600160a01b039094169363a9059cbb93604480840194938390030190829087803b15801561090257600080fd5b505af1158015610916573d6000803e3d6000fd5b505050506040513d602081101561092c57600080fd5b505033600081815260026020908152604091829020805485019055815184815291517f6aa3eac93d079e5e100b1029be716caa33586c96aa4baac390669fb5c2a212129281900390910190a250565b60016020526000908152604090205481565b610995611048565b6001600160a01b03166109a6610aa0565b6001600160a01b0316146109ef576040805162461bcd60e51b81526020600482018190526024820152600080516020611073833981519152604482015290519081900360640190fd5b600080546040516001600160a01b03909116907f8be0079c531659141344cd1fd0a4f28419497f9722a3daafe3b4186f6b6457e0908390a3600080546001600160a01b0319169055565b610a41611048565b6001600160a01b0316610a52610aa0565b6001600160a01b031614610a9b576040805162461bcd60e51b81526020600482018190526024820152600080516020611073833981519152604482015290519081900360640190fd5b600355565b6000546001600160a01b031690565b610ab7611048565b6001600160a01b0316610ac8610aa0565b6001600160a01b031614610b11576040805162461bcd60e51b81526020600482018190526024820152600080516020611073833981519152604482015290519081900360640190fd5b8051825114610b59576040805162461bcd60e51b815260206004820152600f60248201526e0d8cadccee8d040dad2e6dac2e8c6d608b1b604482015290519081900360640190fd5b60005b82518110156107f857818181518110610b7157fe5b602002602001015160016000858481518110610b8957fe5b60200260200101516001600160a01b03166001600160a01b0316815260200190815260200160002060008282540192505081905550818181518110610bca57fe5b602002602001015160016000858481518110610be257fe5b60200260200101516001600160a01b03166001600160a01b03168152602001908152602001600020541015610c5e576040805162461bcd60e51b815260206004820152601d60248201527f4164646974696f6e206f766572666c6f7720666f722062616c616e6365000000604482015290519081900360640190fd5b828181518110610c6a57fe5b60200260200101516001600160a01b03167fa816dd0cff1d33e7e2b9f32e51049088ef7b62b994a50ed53e249932517aab2b838381518110610ca857fe5b60200260200101516040518082815260200191505060405180910390a2600101610b5c565b610cd5611048565b6001600160a01b0316610ce6610aa0565b6001600160a01b031614610d2f576040805162461bcd60e51b81526020600482018190526024820152600080516020611073833981519152604482015290519081900360640190fd5b60005b8151811015610e1357600060016000848481518110610d4d57fe5b60200260200101516001600160a01b03166001600160a01b03168152602001908152602001600020549050600060016000858581518110610d8a57fe5b60200260200101516001600160a01b03166001600160a01b0316815260200190815260200160002081905550828281518110610dc257fe5b60200260200101516001600160a01b03167faff9c51ec88c8ec057348e214050fe508139413df247c5a9af577965e9678747826040518082815260200191505060405180910390a250600101610d32565b5050565b606080825167ffffffffffffffff81118015610e3257600080fd5b50604051908082528060200260200182016040528015610e5c578160200160208202803683370190505b509050825167ffffffffffffffff81118015610e7757600080fd5b50604051908082528060200260200182016040528015610ea1578160200160208202803683370190505b50915060005b8351811015610f1f57336000908152600260205260409020548351849083908110610ece57fe5b60200260200101818152505060016000336001600160a01b03166001600160a01b0316815260200190815260200160002054828281518110610f0c57fe5b6020908102919091010152600101610ea7565b50915091565b60026020526000908152604090205481565b610f3f611048565b6001600160a01b0316610f50610aa0565b6001600160a01b031614610f99576040805162461bcd60e51b81526020600482018190526024820152600080516020611073833981519152604482015290519081900360640190fd5b6001600160a01b038116610fde5760405162461bcd60e51b815260040180806020018281038252602681526020018061104d6026913960400191505060405180910390fd5b600080546040516001600160a01b03808516939216917f8be0079c531659141344cd1fd0a4f28419497f9722a3daafe3b4186f6b6457e091a3600080546001600160a01b0319166001600160a01b0392909216919091179055565b6004546001600160a01b031681565b339056fe4f776e61626c653a206e6577206f776e657220697320746865207a65726f20616464726573734f776e61626c653a2063616c6c6572206973206e6f7420746865206f776e6572a264697066735822122007a1a0812f6360374e129005d896031d9904628ccbc59558867fda78d8e0cdf464736f6c63430007050033",
  "linkReferences": {},
  "deployedLinkReferences": {}
}